{
  "contractName": "ImageRegister",
  "abi": [
    {
      "constant": true,
      "inputs": [
        {
          "name": "",
          "type": "address"
        },
        {
          "name": "",
          "type": "uint256"
        }
      ],
      "name": "ownerToImages",
      "outputs": [
        {
          "name": "ipfsHash",
          "type": "string"
        },
        {
          "name": "title",
          "type": "string"
        },
        {
          "name": "description",
          "type": "string"
        },
        {
          "name": "tags",
          "type": "string"
        },
        {
          "name": "uploadedOn",
          "type": "uint256"
        },
        {
          "name": "owner",
          "type": "address"
        }
      ],
      "payable": false,
      "stateMutability": "view",
      "type": "function"
    },
    {
      "constant": false,
      "inputs": [],
      "name": "renounceOwnership",
      "outputs": [],
      "payable": false,
      "stateMutability": "nonpayable",
      "type": "function"
    },
    {
      "constant": false,
      "inputs": [],
      "name": "destroy",
      "outputs": [],
      "payable": false,
      "stateMutability": "nonpayable",
      "type": "function"
    },
    {
      "constant": true,
      "inputs": [
        {
          "name": "",
          "type": "uint256"
        }
      ],
      "name": "Owners",
      "outputs": [
        {
          "name": "",
          "type": "address"
        }
      ],
      "payable": false,
      "stateMutability": "view",
      "type": "function"
    },
    {
      "constant": true,
      "inputs": [],
      "name": "owner",
      "outputs": [
        {
          "name": "",
          "type": "address"
        }
      ],
      "payable": false,
      "stateMutability": "view",
      "type": "function"
    },
    {
      "constant": false,
      "inputs": [
        {
          "name": "_newOwner",
          "type": "address"
        }
      ],
      "name": "transferOwnership",
      "outputs": [],
      "payable": false,
      "stateMutability": "nonpayable",
      "type": "function"
    },
    {
      "constant": false,
      "inputs": [
        {
          "name": "_recipient",
          "type": "address"
        }
      ],
      "name": "destroyAndSend",
      "outputs": [],
      "payable": false,
      "stateMutability": "nonpayable",
      "type": "function"
    },
    {
      "payable": false,
      "stateMutability": "nonpayable",
      "type": "fallback"
    },
    {
      "anonymous": false,
      "inputs": [
        {
          "indexed": true,
          "name": "_owner",
          "type": "address"
        },
        {
          "indexed": false,
          "name": "_ipfsHash",
          "type": "string"
        },
        {
          "indexed": false,
          "name": "_title",
          "type": "string"
        },
        {
          "indexed": false,
          "name": "_description",
          "type": "string"
        },
        {
          "indexed": false,
          "name": "_tags",
          "type": "string"
        },
        {
          "indexed": false,
          "name": "_uploadedOn",
          "type": "uint256"
        }
      ],
      "name": "LogImageUploaded",
      "type": "event"
    },
    {
      "anonymous": false,
      "inputs": [
        {
          "indexed": true,
          "name": "_owner",
          "type": "address"
        },
        {
          "indexed": false,
          "name": "_stop",
          "type": "bool"
        }
      ],
      "name": "LogEmergencyStop",
      "type": "event"
    },
    {
      "anonymous": false,
      "inputs": [
        {
          "indexed": true,
          "name": "previousOwner",
          "type": "address"
        }
      ],
      "name": "OwnershipRenounced",
      "type": "event"
    },
    {
      "anonymous": false,
      "inputs": [
        {
          "indexed": true,
          "name": "previousOwner",
          "type": "address"
        },
        {
          "indexed": true,
          "name": "newOwner",
          "type": "address"
        }
      ],
      "name": "OwnershipTransferred",
      "type": "event"
    },
    {
      "constant": true,
      "inputs": [
        {
          "name": "_owner",
          "type": "address"
        }
      ],
      "name": "getOwnersCount",
      "outputs": [
        {
          "name": "",
          "type": "uint256"
        }
      ],
      "payable": false,
      "stateMutability": "view",
      "type": "function"
    },
    {
      "constant": false,
      "inputs": [
        {
          "name": "_ipfsHash",
          "type": "string"
        },
        {
          "name": "_title",
          "type": "string"
        },
        {
          "name": "_description",
          "type": "string"
        },
        {
          "name": "_tags",
          "type": "string"
        }
      ],
      "name": "uploadImage",
      "outputs": [
        {
          "name": "_success",
          "type": "bool"
        }
      ],
      "payable": false,
      "stateMutability": "nonpayable",
      "type": "function"
    },
    {
      "constant": true,
      "inputs": [
        {
          "name": "_owner",
          "type": "address"
        }
      ],
      "name": "getImageCount",
      "outputs": [
        {
          "name": "",
          "type": "uint256"
        }
      ],
      "payable": false,
      "stateMutability": "view",
      "type": "function"
    },
    {
      "constant": true,
      "inputs": [
        {
          "name": "userIndex",
          "type": "uint256"
        }
      ],
      "name": "getImageCountByIndex",
      "outputs": [
        {
          "name": "",
          "type": "uint256"
        }
      ],
      "payable": false,
      "stateMutability": "view",
      "type": "function"
    },
    {
      "constant": true,
      "inputs": [
        {
          "name": "_owner",
          "type": "address"
        },
        {
          "name": "_index",
          "type": "uint8"
        }
      ],
      "name": "getImage",
      "outputs": [
        {
          "name": "_ipfsHash",
          "type": "string"
        },
        {
          "name": "_title",
          "type": "string"
        },
        {
          "name": "_description",
          "type": "string"
        },
        {
          "name": "_tags",
          "type": "string"
        },
        {
          "name": "_uploadedOn",
          "type": "uint256"
        },
        {
          "name": "owner",
          "type": "address"
        }
      ],
      "payable": false,
      "stateMutability": "view",
      "type": "function"
    },
    {
      "constant": true,
      "inputs": [
        {
          "name": "userIndex",
          "type": "uint256"
        },
        {
          "name": "_index",
          "type": "uint8"
        }
      ],
      "name": "getImageByIndex",
      "outputs": [
        {
          "name": "_ipfsHash",
          "type": "string"
        },
        {
          "name": "_title",
          "type": "string"
        },
        {
          "name": "_description",
          "type": "string"
        },
        {
          "name": "_tags",
          "type": "string"
        },
        {
          "name": "_uploadedOn",
          "type": "uint256"
        },
        {
          "name": "owner",
          "type": "address"
        }
      ],
      "payable": false,
      "stateMutability": "view",
      "type": "function"
    },
    {
      "constant": false,
      "inputs": [
        {
          "name": "_stop",
          "type": "bool"
        }
      ],
      "name": "emergencyStop",
      "outputs": [],
      "payable": false,
      "stateMutability": "nonpayable",
      "type": "function"
    }
  ],
  "bytecode": "0x60806040526000600360006101000a81548160ff021916908315150217905550336000806101000a81548173ffffffffffffffffffffffffffffffffffffffff021916908373ffffffffffffffffffffffffffffffffffffffff1602179055506122fc8061006e6000396000f3006080604052600436106100d0576000357c0100000000000000000000000000000000000000000000000000000000900463ffffffff1680630ac62e02146100df57806315133ad31461010e578063361fad3b1461014f57806350e25c72146101a6578063715018a6146103ea57806383197ef0146104015780638a1ce908146104185780638da5cb5b14610485578063940d9ec6146104dc578063eece532314610533578063ef9588c914610764578063f2fde38b146109ab578063f5074f41146109ee578063fdfc887314610a31575b3480156100dc57600080fd5b50005b3480156100eb57600080fd5b5061010c600480360381019080803515159060200190929190505050610b84565b005b34801561011a57600080fd5b5061013960048036038101908080359060200190929190505050610c6f565b6040518082815260200191505060405180910390f35b34801561015b57600080fd5b50610190600480360381019080803573ffffffffffffffffffffffffffffffffffffffff169060200190929190505050610d3b565b6040518082815260200191505060405180910390f35b3480156101b257600080fd5b506101f1600480360381019080803573ffffffffffffffffffffffffffffffffffffffff16906020019092919080359060200190929190505050610dc9565b60405180806020018060200180602001806020018781526020018673ffffffffffffffffffffffffffffffffffffffff1673ffffffffffffffffffffffffffffffffffffffff16815260200185810385528b818151815260200191508051906020019080838360005b8381101561027557808201518184015260208101905061025a565b50505050905090810190601f1680156102a25780820380516001836020036101000a031916815260200191505b5085810384528a818151815260200191508051906020019080838360005b838110156102db5780820151818401526020810190506102c0565b50505050905090810190601f1680156103085780820380516001836020036101000a031916815260200191505b50858103835289818151815260200191508051906020019080838360005b83811015610341578082015181840152602081019050610326565b50505050905090810190601f16801561036e5780820380516001836020036101000a031916815260200191505b50858103825288818151815260200191508051906020019080838360005b838110156103a757808201518184015260208101905061038c565b50505050905090810190601f1680156103d45780820380516001836020036101000a031916815260200191505b509a505050505050505050505060405180910390f35b3480156103f657600080fd5b506103ff6110a1565b005b34801561040d57600080fd5b506104166111a3565b005b34801561042457600080fd5b5061044360048036038101908080359060200190929190505050611238565b604051808273ffffffffffffffffffffffffffffffffffffffff1673ffffffffffffffffffffffffffffffffffffffff16815260200191505060405180910390f35b34801561049157600080fd5b5061049a611276565b604051808273ffffffffffffffffffffffffffffffffffffffff1673ffffffffffffffffffffffffffffffffffffffff16815260200191505060405180910390f35b3480156104e857600080fd5b5061051d600480360381019080803573ffffffffffffffffffffffffffffffffffffffff16906020019092919050505061129b565b6040518082815260200191505060405180910390f35b34801561053f57600080fd5b5061056b60048036038101908080359060200190929190803560ff1690602001909291905050506112ec565b60405180806020018060200180602001806020018781526020018673ffffffffffffffffffffffffffffffffffffffff1673ffffffffffffffffffffffffffffffffffffffff16815260200185810385528b818151815260200191508051906020019080838360005b838110156105ef5780820151818401526020810190506105d4565b50505050905090810190601f16801561061c5780820380516001836020036101000a031916815260200191505b5085810384528a818151815260200191508051906020019080838360005b8381101561065557808201518184015260208101905061063a565b50505050905090810190601f1680156106825780820380516001836020036101000a031916815260200191505b50858103835289818151815260200191508051906020019080838360005b838110156106bb5780820151818401526020810190506106a0565b50505050905090810190601f1680156106e85780820380516001836020036101000a031916815260200191505b50858103825288818151815260200191508051906020019080838360005b83811015610721578082015181840152602081019050610706565b50505050905090810190601f16801561074e5780820380516001836020036101000a031916815260200191505b509a505050505050505050505060405180910390f35b34801561077057600080fd5b506107b2600480360381019080803573ffffffffffffffffffffffffffffffffffffffff169060200190929190803560ff16906020019092919050505061170b565b60405180806020018060200180602001806020018781526020018673ffffffffffffffffffffffffffffffffffffffff1673ffffffffffffffffffffffffffffffffffffffff16815260200185810385528b818151815260200191508051906020019080838360005b8381101561083657808201518184015260208101905061081b565b50505050905090810190601f1680156108635780820380516001836020036101000a031916815260200191505b5085810384528a818151815260200191508051906020019080838360005b8381101561089c578082015181840152602081019050610881565b50505050905090810190601f1680156108c95780820380516001836020036101000a031916815260200191505b50858103835289818151815260200191508051906020019080838360005b838110156109025780820151818401526020810190506108e7565b50505050905090810190601f16801561092f5780820380516001836020036101000a031916815260200191505b50858103825288818151815260200191508051906020019080838360005b8381101561096857808201518184015260208101905061094d565b50505050905090810190601f1680156109955780820380516001836020036101000a031916815260200191505b509a505050505050505050505060405180910390f35b3480156109b757600080fd5b506109ec600480360381019080803573ffffffffffffffffffffffffffffffffffffffff169060200190929190505050611aec565b005b3480156109fa57600080fd5b50610a2f600480360381019080803573ffffffffffffffffffffffffffffffffffffffff169060200190929190505050611b53565b005b348015610a3d57600080fd5b50610b6a600480360381019080803590602001908201803590602001908080601f0160208091040260200160405190810160405280939291908181526020018383808284378201915050505050509192919290803590602001908201803590602001908080601f0160208091040260200160405190810160405280939291908181526020018383808284378201915050505050509192919290803590602001908201803590602001908080601f0160208091040260200160405190810160405280939291908181526020018383808284378201915050505050509192919290803590602001908201803590602001908080601f0160208091040260200160405190810160405280939291908181526020018383808284378201915050505050509192919290505050611bc7565b604051808215151515815260200191505060405180910390f35b6000809054906101000a900473ffffffffffffffffffffffffffffffffffffffff1673ffffffffffffffffffffffffffffffffffffffff163373ffffffffffffffffffffffffffffffffffffffff16141515610bdf57600080fd5b80600360006101000a81548160ff0219169083151502179055506000809054906101000a900473ffffffffffffffffffffffffffffffffffffffff1673ffffffffffffffffffffffffffffffffffffffff167f1fd8a6424996fcb73e71380685f86d34feb317dc811892630fd77cc70046e06a82604051808215151515815260200191505060405180910390a250565b600080600360009054906101000a900460ff16151515610c8e57600080fd5b600283815481101515610c9d57fe5b9060005260206000200160009054906101000a900473ffffffffffffffffffffffffffffffffffffffff16905060008173ffffffffffffffffffffffffffffffffffffffff1614151515610cf057600080fd5b600160008273ffffffffffffffffffffffffffffffffffffffff1673ffffffffffffffffffffffffffffffffffffffff16815260200190815260200160002080549050915050919050565b6000600360009054906101000a900460ff16151515610d5957600080fd5b60008273ffffffffffffffffffffffffffffffffffffffff1614151515610d7f57600080fd5b600160008373ffffffffffffffffffffffffffffffffffffffff1673ffffffffffffffffffffffffffffffffffffffff168152602001908152602001600020805490509050919050565b600160205281600052604060002081815481101515610de457fe5b906000526020600020906006020160009150915050806000018054600181600116156101000203166002900480601f016020809104026020016040519081016040528092919081815260200182805460018160011615610100020316600290048015610e915780601f10610e6657610100808354040283529160200191610e91565b820191906000526020600020905b815481529060010190602001808311610e7457829003601f168201915b505050505090806001018054600181600116156101000203166002900480601f016020809104026020016040519081016040528092919081815260200182805460018160011615610100020316600290048015610f2f5780601f10610f0457610100808354040283529160200191610f2f565b820191906000526020600020905b815481529060010190602001808311610f1257829003601f168201915b505050505090806002018054600181600116156101000203166002900480601f016020809104026020016040519081016040528092919081815260200182805460018160011615610100020316600290048015610fcd5780601f10610fa257610100808354040283529160200191610fcd565b820191906000526020600020905b815481529060010190602001808311610fb057829003601f168201915b505050505090806003018054600181600116156101000203166002900480601f01602080910402602001604051908101604052809291908181526020018280546001816001161561010002031660029004801561106b5780601f106110405761010080835404028352916020019161106b565b820191906000526020600020905b81548152906001019060200180831161104e57829003601f168201915b5050505050908060040154908060050160009054906101000a900473ffffffffffffffffffffffffffffffffffffffff16905086565b6000809054906101000a900473ffffffffffffffffffffffffffffffffffffffff1673ffffffffffffffffffffffffffffffffffffffff163373ffffffffffffffffffffffffffffffffffffffff161415156110fc57600080fd5b6000809054906101000a900473ffffffffffffffffffffffffffffffffffffffff1673ffffffffffffffffffffffffffffffffffffffff167ff8df31144d9c2f0f6b59d69b8b98abd5459d07f2742c4df920b25aae33c6482060405160405180910390a260008060006101000a81548173ffffffffffffffffffffffffffffffffffffffff021916908373ffffffffffffffffffffffffffffffffffffffff160217905550565b6000809054906101000a900473ffffffffffffffffffffffffffffffffffffffff1673ffffffffffffffffffffffffffffffffffffffff163373ffffffffffffffffffffffffffffffffffffffff161415156111fe57600080fd5b6000809054906101000a900473ffffffffffffffffffffffffffffffffffffffff1673ffffffffffffffffffffffffffffffffffffffff16ff5b60028181548110151561124757fe5b906000526020600020016000915054906101000a900473ffffffffffffffffffffffffffffffffffffffff1681565b6000809054906101000a900473ffffffffffffffffffffffffffffffffffffffff1681565b6000600360009054906101000a900460ff161515156112b957600080fd5b60008273ffffffffffffffffffffffffffffffffffffffff16141515156112df57600080fd5b6002805490509050919050565b606080606080600080600080600360009054906101000a900460ff1615151561131457600080fd5b60028a81548110151561132357fe5b9060005260206000200160009054906101000a900473ffffffffffffffffffffffffffffffffffffffff16915060008273ffffffffffffffffffffffffffffffffffffffff161415151561137657600080fd5b60008960ff161015801561138e575060ff8960ff1611155b151561139957600080fd5b6000600160008473ffffffffffffffffffffffffffffffffffffffff1673ffffffffffffffffffffffffffffffffffffffff168152602001908152602001600020805490501115156113ea57600080fd5b600160008373ffffffffffffffffffffffffffffffffffffffff1673ffffffffffffffffffffffffffffffffffffffff1681526020019081526020016000208960ff1681548110151561143957fe5b906000526020600020906006020190508060000181600101826002018360030184600401548560050160009054906101000a900473ffffffffffffffffffffffffffffffffffffffff16858054600181600116156101000203166002900480601f0160208091040260200160405190810160405280929190818152602001828054600181600116156101000203166002900480156115185780601f106114ed57610100808354040283529160200191611518565b820191906000526020600020905b8154815290600101906020018083116114fb57829003601f168201915b50505050509550848054600181600116156101000203166002900480601f0160208091040260200160405190810160405280929190818152602001828054600181600116156101000203166002900480156115b45780601f10611589576101008083540402835291602001916115b4565b820191906000526020600020905b81548152906001019060200180831161159757829003601f168201915b50505050509450838054600181600116156101000203166002900480601f0160208091040260200160405190810160405280929190818152602001828054600181600116156101000203166002900480156116505780601f1061162557610100808354040283529160200191611650565b820191906000526020600020905b81548152906001019060200180831161163357829003601f168201915b50505050509350828054600181600116156101000203166002900480601f0160208091040260200160405190810160405280929190818152602001828054600181600116156101000203166002900480156116ec5780601f106116c1576101008083540402835291602001916116ec565b820191906000526020600020905b8154815290600101906020018083116116cf57829003601f168201915b5050505050925097509750975097509750975050509295509295509295565b6060806060806000806000600360009054906101000a900460ff1615151561173257600080fd5b60008973ffffffffffffffffffffffffffffffffffffffff161415151561175857600080fd5b60008860ff1610158015611770575060ff8860ff1611155b151561177b57600080fd5b6000600160008b73ffffffffffffffffffffffffffffffffffffffff1673ffffffffffffffffffffffffffffffffffffffff168152602001908152602001600020805490501115156117cc57600080fd5b600160008a73ffffffffffffffffffffffffffffffffffffffff1673ffffffffffffffffffffffffffffffffffffffff1681526020019081526020016000208860ff1681548110151561181b57fe5b906000526020600020906006020190508060000181600101826002018360030184600401548560050160009054906101000a900473ffffffffffffffffffffffffffffffffffffffff16858054600181600116156101000203166002900480601f0160208091040260200160405190810160405280929190818152602001828054600181600116156101000203166002900480156118fa5780601f106118cf576101008083540402835291602001916118fa565b820191906000526020600020905b8154815290600101906020018083116118dd57829003601f168201915b50505050509550848054600181600116156101000203166002900480601f0160208091040260200160405190810160405280929190818152602001828054600181600116156101000203166002900480156119965780601f1061196b57610100808354040283529160200191611996565b820191906000526020600020905b81548152906001019060200180831161197957829003601f168201915b50505050509450838054600181600116156101000203166002900480601f016020809104026020016040519081016040528092919081815260200182805460018160011615610100020316600290048015611a325780601f10611a0757610100808354040283529160200191611a32565b820191906000526020600020905b815481529060010190602001808311611a1557829003601f168201915b50505050509350828054600181600116156101000203166002900480601f016020809104026020016040519081016040528092919081815260200182805460018160011615610100020316600290048015611ace5780601f10611aa357610100808354040283529160200191611ace565b820191906000526020600020905b815481529060010190602001808311611ab157829003601f168201915b50505050509250965096509650965096509650509295509295509295565b6000809054906101000a900473ffffffffffffffffffffffffffffffffffffffff1673ffffffffffffffffffffffffffffffffffffffff163373ffffffffffffffffffffffffffffffffffffffff16141515611b4757600080fd5b611b50816120e4565b50565b6000809054906101000a900473ffffffffffffffffffffffffffffffffffffffff1673ffffffffffffffffffffffffffffffffffffffff163373ffffffffffffffffffffffffffffffffffffffff16141515611bae57600080fd5b8073ffffffffffffffffffffffffffffffffffffffff16ff5b600080611bd26121de565b600080600360009054906101000a900460ff16151515611bf157600080fd5b602e8951141515611c0157600080fd5b60008851118015611c155750610100885111155b1515611c2057600080fd5b6104008751101515611c3157600080fd5b60008651118015611c455750610100865111155b1515611c5057600080fd5b42935060c0604051908101604052808a81526020018981526020018881526020018781526020018581526020013373ffffffffffffffffffffffffffffffffffffffff16815250925060019150600090505b600280549050811015611d32573373ffffffffffffffffffffffffffffffffffffffff16600282815481101515611cd557fe5b9060005260206000200160009054906101000a900473ffffffffffffffffffffffffffffffffffffffff1673ffffffffffffffffffffffffffffffffffffffff161415611d255760009150611d32565b8080600101915050611ca2565b8115611d9f5760023390806001815401808255809150509060018203906000526020600020016000909192909190916101000a81548173ffffffffffffffffffffffffffffffffffffffff021916908373ffffffffffffffffffffffffffffffffffffffff160217905550505b600160003373ffffffffffffffffffffffffffffffffffffffff1673ffffffffffffffffffffffffffffffffffffffff16815260200190815260200160002083908060018154018082558091505090600182039060005260206000209060060201600090919290919091506000820151816000019080519060200190611e2692919061222b565b506020820151816001019080519060200190611e4392919061222b565b506040820151816002019080519060200190611e6092919061222b565b506060820151816003019080519060200190611e7d92919061222b565b506080820151816004015560a08201518160050160006101000a81548173ffffffffffffffffffffffffffffffffffffffff021916908373ffffffffffffffffffffffffffffffffffffffff1602179055505050503373ffffffffffffffffffffffffffffffffffffffff167f4753b7d7d7b6713cb600756bd11cc8bf932ece70274edfbc01931256caaa63be8a8a8a8a89604051808060200180602001806020018060200186815260200185810385528a818151815260200191508051906020019080838360005b83811015611f61578082015181840152602081019050611f46565b50505050905090810190601f168015611f8e5780820380516001836020036101000a031916815260200191505b50858103845289818151815260200191508051906020019080838360005b83811015611fc7578082015181840152602081019050611fac565b50505050905090810190601f168015611ff45780820380516001836020036101000a031916815260200191505b50858103835288818151815260200191508051906020019080838360005b8381101561202d578082015181840152602081019050612012565b50505050905090810190601f16801561205a5780820380516001836020036101000a031916815260200191505b50858103825287818151815260200191508051906020019080838360005b83811015612093578082015181840152602081019050612078565b50505050905090810190601f1680156120c05780820380516001836020036101000a031916815260200191505b50995050505050505050505060405180910390a26001945050505050949350505050565b600073ffffffffffffffffffffffffffffffffffffffff168173ffffffffffffffffffffffffffffffffffffffff161415151561212057600080fd5b8073ffffffffffffffffffffffffffffffffffffffff166000809054906101000a900473ffffffffffffffffffffffffffffffffffffffff1673ffffffffffffffffffffffffffffffffffffffff167f8be0079c531659141344cd1fd0a4f28419497f9722a3daafe3b4186f6b6457e060405160405180910390a3806000806101000a81548173ffffffffffffffffffffffffffffffffffffffff021916908373ffffffffffffffffffffffffffffffffffffffff16021790555050565b60c0604051908101604052806060815260200160608152602001606081526020016060815260200160008152602001600073ffffffffffffffffffffffffffffffffffffffff1681525090565b828054600181600116156101000203166002900490600052602060002090601f016020900481019282601f1061226c57805160ff191683800117855561229a565b8280016001018555821561229a579182015b8281111561229957825182559160200191906001019061227e565b5b5090506122a791906122ab565b5090565b6122cd91905b808211156122c95760008160009055506001016122b1565b5090565b905600a165627a7a723058201c8c7d2cdf9916f27846b48ebd24f1ed540e9bcf8593c59b1041a28c69b943500029",
  "source": "pragma solidity ^0.4.24;\n\nimport \"openzeppelin-solidity/contracts/lifecycle/Destructible.sol\";\n\ncontract ImageRegister is Destructible {\n\n    struct Image {\n        string ipfsHash;        // IPFS hash\n        string title;           // Image title\n        string description;     // Image description\n        string tags;            // Image tags in comma separated format\n        uint256 uploadedOn;     // Uploaded timestamp\n        address owner;          // The owner of the picture\n    }\n\n    // Maps owner to their images\n    mapping (address => Image[]) public ownerToImages;\n    address[] public Owners;\n    \n    bool private stopped = false;\n\n    event LogImageUploaded(\n        address indexed _owner, \n        string _ipfsHash, \n        string _title, \n        string _description, \n        string _tags,\n        uint256 _uploadedOn\n    );\n\n\n    event LogEmergencyStop(\n        address indexed _owner, \n        bool _stop\n    );\n\n\n    modifier stopInEmergency { \n        require(!stopped); \n        _;\n    }\n\n    function() public {}\n\n    function getOwnersCount(address _owner) \n        public view \n        stopInEmergency \n        returns (uint256) \n    {\n        require(_owner != 0x0);\n        return Owners.length;\n    }\n\n\n\n    function uploadImage(\n        string _ipfsHash, \n        string _title, \n        string _description, \n        string _tags\n    ) public stopInEmergency returns (bool _success) {\n            \n        require(bytes(_ipfsHash).length == 46);\n        require(bytes(_title).length > 0 && bytes(_title).length <= 256);\n        require(bytes(_description).length < 1024);\n        require(bytes(_tags).length > 0 && bytes(_tags).length <= 256);\n\n        uint256 uploadedOn = now;\n        Image memory image = Image(\n            _ipfsHash,\n            _title,\n            _description,\n            _tags,\n            uploadedOn,\n            msg.sender\n        );\n        bool append = true;\n        for(uint i = 0; i < Owners.length; i++){\n            if(Owners[i] == msg.sender){\n                append = false;\n                break;\n            }\n        }\n        if(append){\n            Owners.push(msg.sender);\n        }\n        ownerToImages[msg.sender].push(image);\n\n        emit LogImageUploaded(\n            msg.sender,\n            _ipfsHash,\n            _title,\n            _description,\n            _tags,\n            uploadedOn\n        );\n\n        _success = true;\n    }\n\n\n    function getImageCount(address _owner) \n        public view \n        stopInEmergency \n        returns (uint256) \n    {\n        require(_owner != 0x0);\n        return ownerToImages[_owner].length;\n    }\n    function getImageCountByIndex(uint userIndex) \n        public view \n        stopInEmergency \n        returns (uint256) \n    {\n        address _owner = Owners[userIndex];\n        require(_owner != 0x0);\n        return ownerToImages[_owner].length;\n    }\n\n    function getImage(address _owner, uint8 _index) \n        public stopInEmergency view returns (\n        string _ipfsHash, \n        string _title, \n        string _description, \n        string _tags,\n        uint256 _uploadedOn,\n        address owner\n    ) {\n\n        require(_owner != 0x0);\n        require(_index >= 0 && _index <= 2**8 - 1);\n        require(ownerToImages[_owner].length > 0);\n\n        Image storage image = ownerToImages[_owner][_index];\n        \n        return (\n            image.ipfsHash, \n            image.title, \n            image.description, \n            image.tags, \n            image.uploadedOn,\n            image.owner\n        );\n    }\n\n    function getImageByIndex(uint userIndex, uint8 _index) \n        public stopInEmergency view returns (\n        string _ipfsHash, \n        string _title, \n        string _description, \n        string _tags,\n        uint256 _uploadedOn,\n        address owner\n    ) {\n        address _owner = Owners[userIndex];\n        require(_owner != 0x0);\n        require(_index >= 0 && _index <= 2**8 - 1);\n        require(ownerToImages[_owner].length > 0);\n\n        Image storage image = ownerToImages[_owner][_index];\n        \n        return (\n            image.ipfsHash, \n            image.title, \n            image.description, \n            image.tags, \n            image.uploadedOn,\n            image.owner\n\n        );\n    }\n\n\n    function emergencyStop(bool _stop) public onlyOwner {\n        stopped = _stop;\n        emit LogEmergencyStop(owner, _stop);\n    }\n}",
  "sourcePath": "/Users/andyee1997/course_Codes/picture_dapp/contracts/ImageRegister.sol",
  "compiler": {
    "name": "solc",
    "version": "0.4.24+commit.e67f0147.Emscripten.clang"
  },
  "schemaVersion": "2.0.1",
  "updatedAt": "2019-01-15T16:07:53.561Z"
}